{
  "contractName": "Accounts",
  "abi": [
    {
      "constant": false,
      "inputs": [
        {
          "internalType": "string",
          "name": "_name",
          "type": "string"
        },
        {
          "internalType": "uint256",
          "name": "_balance",
          "type": "uint256"
        }
      ],
      "name": "createAccount",
      "outputs": [],
      "payable": false,
      "stateMutability": "nonpayable",
      "type": "function"
    },
    {
      "constant": true,
      "inputs": [
        {
          "internalType": "address",
          "name": "_address",
          "type": "address"
        }
      ],
      "name": "getAccount",
      "outputs": [
        {
          "internalType": "string",
          "name": "",
          "type": "string"
        },
        {
          "internalType": "uint256",
          "name": "",
          "type": "uint256"
        }
      ],
      "payable": false,
      "stateMutability": "view",
      "type": "function"
    },
    {
      "constant": true,
      "inputs": [],
      "name": "getMyAccount",
      "outputs": [
        {
          "internalType": "string",
          "name": "",
          "type": "string"
        },
        {
          "internalType": "uint256",
          "name": "",
          "type": "uint256"
        }
      ],
      "payable": false,
      "stateMutability": "view",
      "type": "function"
    }
  ],
  "bytecode": "0x608060405234801561001057600080fd5b506105ab806100206000396000f3fe608060405234801561001057600080fd5b50600436106100415760003560e01c80636586ace614610046578063c0606f39146100f0578063fbcbc0f114610177575b600080fd5b6100ee6004803603604081101561005c57600080fd5b81019060208101813564010000000081111561007757600080fd5b82018360208201111561008957600080fd5b803590602001918460018302840111640100000000831117156100ab57600080fd5b91908080601f016020809104026020016040519081016040528093929190818152602001838380828437600092019190915250929550509135925061019d915050565b005b6100f8610290565b6040518080602001838152602001828103825284818151815260200191508051906020019080838360005b8381101561013b578181015183820152602001610123565b50505050905090810190601f1680156101685780820380516001836020036101000a031916815260200191505b50935050505060405180910390f35b6100f86004803603602081101561018d57600080fd5b50356001600160a01b03166103ac565b60008251116101ea576040805162461bcd60e51b81526020600482015260146024820152734e616d652063616e6e6f7420626520656d70747960601b604482015290519081900360640190fd5b3360009081526020819052604090206001015415610248576040805162461bcd60e51b81526020600482015260166024820152754163636f756e7420616c72656164792065786973747360501b604482015290519081900360640190fd5b604080518082018252838152602080820184905233600090815280825292909220815180519293919261027e92849201906104db565b50602082015181600101559050505050565b336000908152602081905260408120546060919060026000196101006001841615020190911604610301576040805162461bcd60e51b81526020600482015260166024820152751058d8dbdd5b9d08191bd95cc81b9bdd08195e1a5cdd60521b604482015290519081900360640190fd5b336000908152602081815260409182902060018082015482548551600293821615610100026000190190911692909204601f8101859004850283018501909552848252919391929091849183018282801561039d5780601f106103725761010080835404028352916020019161039d565b820191906000526020600020905b81548152906001019060200180831161038057829003601f168201915b50505050509150915091509091565b6001600160a01b0381166000908152602081905260408120546060919060026000196101006001841615020190911604610426576040805162461bcd60e51b81526020600482015260166024820152751058d8dbdd5b9d08191bd95cc81b9bdd08195e1a5cdd60521b604482015290519081900360640190fd5b6001600160a01b0383166000908152602081815260409182902060018082015482548551600293821615610100026000190190911692909204601f810185900485028301850190955284825291939192909184918301828280156104cb5780601f106104a0576101008083540402835291602001916104cb565b820191906000526020600020905b8154815290600101906020018083116104ae57829003601f168201915b5050505050915091509150915091565b828054600181600116156101000203166002900490600052602060002090601f016020900481019282601f1061051c57805160ff1916838001178555610549565b82800160010185558215610549579182015b8281111561054957825182559160200191906001019061052e565b50610555929150610559565b5090565b61057391905b80821115610555576000815560010161055f565b9056fea265627a7a723158205539c0d99c00c1f75f42b995f7cbfbc8bb47630549d48bf15358bb5a57b4753564736f6c63430005100032",
  "source": "// SPDX-License-Identifier: MIT\r\n\r\npragma solidity ^0.5.16;\r\ncontract Accounts {\r\n    struct Account {\r\n        string name;\r\n        uint256 balance;\r\n    }\r\n\r\n    mapping(address => Account) private accounts;\r\n\r\n    function createAccount(string memory _name, uint256 _balance) public {\r\n        require(bytes(_name).length > 0, \"Name cannot be empty\");\r\n        require(accounts[msg.sender].balance == 0, \"Account already exists\");\r\n        accounts[msg.sender] = Account(_name, _balance);\r\n    }\r\n\r\n    function getAccount(address _address) public view returns (string memory, uint256) {\r\n        require(bytes(accounts[_address].name).length > 0, \"Account does not exist\");\r\n        return (accounts[_address].name, accounts[_address].balance);\r\n    }\r\n\r\n    function getMyAccount() public view returns (string memory, uint256) {\r\n        require(bytes(accounts[msg.sender].name).length > 0, \"Account does not exist\");\r\n        return (accounts[msg.sender].name, accounts[msg.sender].balance);\r\n    }\r\n}",
  "sourcePath": "C:\\Users\\ShiLaCow\\Desktop\\BCCT\\my-new-dapp\\contracts\\Accounts.sol",
  "compiler": {
    "name": "solc",
    "version": "0.5.16+commit.9c3226ce.Emscripten.clang"
  },
  "schemaVersion": "3.4.16",
  "updatedAt": "2025-03-13T07:37:14.465Z",
  "networkType": "ethereum",
  "devdoc": {
    "methods": {}
  },
  "userdoc": {
    "methods": {}
  }
}